:020000040000FA
:0400000031EF00F0EC
:0800080000D00F0E006EF29211
:10001000F090F092F290110000D01100816AC2902D
:10002000FF0E936EFF0EC16EF292F090F092F2907E
:10003000F19EF288F086F088F286F19CF19AF198B0
:10004000F28EF28CD08EF08EF08CF1801200806AED
:10005000FF0E926E826AFF0E946E836AFF0E956E9B
:1000600012000EEC00F027EC00F0000E006ED39EA4
:0C00700003000000F00E006E3CEF00F0FA
:020000040030CA
:03000100011F1FBD
:020005008385F1
:060008000FC00FE00F40E5
:0200000400F00A
:1000000054657374204461746100010203040500A7
:00000001FF
