:020000040000FA
:040000004DEF00F0D0
:0800080000D011000A0E136E76
:10001000150E126E0000122EFDD7132EF9D7000018
:10002000120000001200040E166E162EFED71200EB
:10003000200E156E8B80030E166E11EC00F08B9067
:10004000000000000000162EFAD7152EF3D712007C
:10005000200E156E8B8011EC00F08B9013EC00F0ED
:10006000152EF8D712008B9006EC00F018EC00F07B
:1000700028EC00F08B9006EC00F00E0E106E0936A6
:1000800008360936083609360836D8A033EC00F0B1
:1000900038EC00F0102EF7D71200826A0F0EC16EF6
:1000A000000E946E340E086E750E096E3DEC00F075
:0400B00058EF00F015
:020000040030CA
:03000100021F1FBC
:020005008385F1
:060008000FC00FE00F40E5
:0200000400F00A
:1000000054657374204461746100010203040500A7
:00000001FF
