:020000040000FA
:04000000A3EF00F07A
:0800080000D001800DEC00F0B6
:020010001100DD
:0800180040D00870F2B01FECAB
:1000200000F0F2B227EC00F0F2B02FEC00F0F2B2E8
:1000300037EC00F0F290F292F090F092120081B85A
:100040003FEC00F081BA46EC00F0F2901200350E61
:10005000026E08B00286360E036EF2921200350E62
:10006000026E08B00286340E036EF0901200350E58
:10007000026E08B00286300E036EF0921200350E4A
:10008000026E08B00286350E036E1200350E026E47
:1000900008B00286320E036E1200D59ECA94F29406
:1000A00005801100D59ECA94F29400801200816AE6
:1000B0008A6AC290FF0EC16EFF0E936E3B0E816E78
:1000C000F292F090F092F290F19EF288F086F08831
:1000D000F286F19CF19AF198F28EF28CF28ED08E2B
:1000E000F08EF08CF1801200806A896A070EC16E72
:1000F000076EB46EFF0E926E836A8C6AFF0E956E69
:100100001200F70ED76E700ED66ED58E95EC00F0FD
:100110001200F70ED76E700ED66E000ECC6E8B826C
:10012000D58ECA8495EC00F0120005A0FED705908C
:10013000120081EC00F089EC00F0120089EC00F074
:1001400081EC00F01200826A8B6AFD0E946E57EC0F
:1001500000F074EC00F08B820F01460ECB6E150E92
:10016000BB6E0C0EBA6E9E92CA92CA90080ED56EE5
:10017000F70ED76E520ED66EF294F28AF194F28E8A
:10018000000E006E000E016EF70ED76E700ED66E6A
:10019000000ECC6E8B82000000000000350E026E57
:1001A000350E036ED39E03000000000000000E0E0B
:1001B000046E000E076E010E066E000E056E086ED0
:1001C000033602360336023603360236D8A09EECDA
:1001D00000F0D8B099EC00F0072A042EF5D7062ECF
:1001E000EFD7E0D704EC01F0FCEC00F01200FCECDF
:1001F00000F004EC01F01200AF0E246E00000000CD
:10020000242EFEEF00F0120082821F0E236E0000EB
:100210000000000000008292050E246E0000000025
:10022000242E10EF01F08282000000000000000088
:10023000000000008292232E0CEF01F012003D0E10
:10024000926EF00E936E806A816AB480B482B48438
:06025000120029EF01F08D
:020000040030CA
:03000100021F1EBD
:020005008381F5
:060008000FC00FE00F40E5
:0200000400F00A
:1000000054657374204461746100010203040500A7
:00000001FF
