:020000040000FA
:04000000C4EF00F059
:0200080008D01E
:0800180049D0F17CF17AF17886
:10002000F1AC19EC00F0F1BC17EC00F011000390FA
:10003000120003800270F2B028EC00F0F2B230EC53
:1000400000F0F2B038EC00F0F2B240EC00F0120038
:1000500081B848EC00F081BA4FEC00F0F290120049
:10006000350E006E02B00086360E016EF29212005E
:10007000350E006E02B00086340E016EF290120052
:10008000350E006E02B00086300E016EF292120044
:10009000350E006E02B00086350E016E1200350E70
:1000A000006E02B00086320E016E1200D59ECA9418
:1000B000F29412801000816AC290FF0E936EFF0EC0
:1000C000C16EF292F090F092F290F19EF288F0867A
:1000D000F088F286F19CF19AF198F28EF28CD08E33
:1000E000F08EF08CF1801200826A8B6A946A1200A2
:1000F0000F01440ECB6E050EBB6E2C0EBA6E000EB9
:10010000CA6E080ED56EF294F28AF194F28E120045
:10011000806AFF0E926E836AFF0E956E1200FF0ECC
:10012000D76E520ED66ED58EA3EC00F01200FF0EE5
:10013000D76E520ED66E000ECC6E8B82D58ECA84D0
:10014000A3EC00F0120012A0FED7129012008FEC68
:1001500000F097EC00F0120097EC00F08FEC00F04C
:10016000120001360036013600360E0E106EBAEF60
:1001700000F0120001360036D8A0A7EC00F0ACEC7D
:1001800000F0102EF7D712005BEC00F074EC00F0DA
:1001900078EC00F088EC00F0FF0E116E000E026E9D
:1001A000000E036ED39E0300000003B0B1EC00F01C
:0C01B00003A003000000F9D7DCEF00F012
:020000040030CA
:03000100011F1FBD
:020005008385F1
:060008000FC00FE00F40E5
:0200000400F00A
:1000000054657374204461746100010203040500A7
:00000001FF
