:020000040000FA
:04000000ACEF00F071
:0200080008D01E
:0800180031D0F2B01AEC00F047
:10002000F2B222EC00F0F2B028EC00F0F2B22EECCA
:1000300000F0110081B834EC00F081BA39EC00F026
:10004000F2901200350E006E360E016EF292120022
:10005000350E006E340E016EF2901200350E006EF9
:10006000300E016EF2921200350E006E350E016EEA
:100070001200350E006E320E016E1200D59ECA942B
:10008000F29404801000816AC290FF0E936EFF0EFE
:10009000C16EF292F090F092F290F19EF288F086AA
:1000A000F088F286F19CF19AF198F28EF28CD08E63
:1000B000F08EF08CF1801200826A8B6A946A1200D2
:1000C0000F01440ECB6E040EBB6E1C0EBA6E000EFA
:1000D000CA6E080ED56EF294F28AF194F28E120076
:1000E000806AFF0E926E836AFF0E956E1200FF0EFD
:1000F000D76E520ED66ED58E8BEC00F01200FF0E2E
:10010000D76E520ED66E000ECC6E8B82D58ECA8400
:100110008BEC00F0120004A0FED70490120077ECE4
:1001200000F07FEC00F012007FEC00F077EC00F0C4
:10013000120001360036013600360E0E026EA2EFB6
:1001400000F0120001360036D8A08FEC00F094ECDD
:1001500000F0022EF7D7120043EC00F05CEC00F048
:1001600060EC00F070EC00F0FF0E036ED39E030015
:0E017000000099EC00F0032EFAD7BDEF00F06E
:020000040030CA
:03000100011F1FBD
:020005008385F1
:060008000FC00FE00F40E5
:0200000400F00A
:1000000054657374204461746100010203040500A7
:00000001FF
