:020000040000FA
:0400000063EF00F0BA
:0800080000D0F292F090F0929A
:06001000F29001801100D6
:0800180000D0D59ECA94F294B9
:1000200005801100D59ECA94F29400801200816A66
:100030008A6AC290FF0EC16EFF0E936E3B0E816EF8
:10004000F292F090F092F290F19EF288F086F088B1
:10005000F286F19CF19AF198F28EF28CF28ED08EAB
:10006000F08EF08CF1801200806A896A070EC16EF2
:10007000076EB46EFF0E926E836A8C6AFF0E956EE9
:100080001200F70ED76E700ED66ED58E55EC00F0BE
:100090001200F70ED76E700ED66E000ECC6E8B82ED
:1000A000D58ECA8455EC00F0120005A0FED705904D
:1000B000120041EC00F049EC00F0120049EC00F0B5
:1000C00041EC00F01200826A8B6AFD0E946E17EC10
:1000D00000F034EC00F0D39E0300000000000000AC
:1000E000350E026E350E036E0E0E046E010E066E98
:1000F000350E026E350E036E0336023603360236B7
:1001000003360236D8A08CEC00F091EC00F0042EFF
:10011000F7D7062EEDD7DFD79EEC00F096EC00F077
:10012000120096EC00F09EEC00F01200AF0E246E70
:1001300000000000242E98EF00F0120082821F0EB3
:10014000236E00000000000000008292050E246E65
:1001500000000000242EAAEF00F0828200000000C0
:1001600000000000000000008292232EA6EF00F0A5
:1001700012003D0E926EF00E936E806A816AB4801A
:0A018000B482B4841200C3EF00F053
:020000040030CA
:03000100021F1EBD
:020005008381F5
:060008000FC00FE00F40E5
:0200000400F00A
:1000000054657374204461746100010203040500A7
:00000001FF
