:020000040000FA
:040000001DEF00F000
:0800080000D0D59ECA940080CF
:020010001100DD
:0800180000D01100816A8A6A20
:10002000806A896A070EC16E076EB46EFF0E926E0B
:10003000836A8C6AFF0E956E1200826A8B6AFD0ECF
:10004000946E8B820F01440ECB6E150EBB6E0C0EA0
:10005000BA6E9E92CA92CA90080ED56EF70ED76EEF
:10006000520ED66EF294F28AF184F28E000E006E79
:0C007000D58ECA8400A0FED73CEF00F043
:020000040030CA
:03000100021F1EBD
:020005008381F5
:060008000FC00FE00F40E5
:0200000400F00A
:1000000054657374204461746100010203040500A7
:00000001FF
