:020000040000FA
:04000000B3EF00F06A
:0800080000D012EC00F0F292AE
:10001000F090F092F290110000D0D59ECA94F29424
:10002000058011000180F2B020EC00F0F2B229EC62
:1000300000F0F0B031EC00F0F0B239EC00F012005A
:100040000A70F29081A841EC00F081AA47EC00F020
:1000500012000A80350E026E360E036EF292088090
:1000600012000A80350E026E340E036EF290088282
:1000700012000A80350E026E300E036EF292088472
:100080001200350E026E0C0E036E08881200350E3B
:10009000026E320E036E088A1200826A8B6AFD0EAF
:1000A000946E1200816A8A6AC290FF0EC16EFF0EC2
:1000B000936E3B0E816EF292F090F092F290F19E70
:1000C000F288F086F088F286F19CF19AF198F28E2F
:1000D000F28CF28ED08EF08EF08CF1801200806A5D
:1000E000896A070EC16E076EB46EFF0E926E836A48
:1000F0008C6AFF0E956E12000F01460ECB6E150E28
:10010000BB6E0C0EBA6E9E92CA92CA90080ED56E45
:10011000F70ED76E520ED66EF294F28AF194F28EEA
:100120001200F70ED76E700ED66ED58EA5EC00F0CD
:100130001200F70ED76E700ED66E000ECC6E8B824C
:10014000D58ECA84A5EC00F0120005A0FED705905C
:10015000120091EC00F099EC00F0120099EC00F024
:1001600091EC00F012004DEC00F052EC00F06FEC5E
:1001700000F07CEC00F0000E006E000E016E0B6AC9
:10018000F70ED76E700ED66E000ECC6E8B8200000E
:1001900000000000000E086E000E0A6ED39E0300E1
:1001A0000000000000000E0E046E000E076E010E2F
:1001B000066E000E056E0AA0EFD70B700BB002861C
:1001C0000BA0029602500C6E03500D6E0D360C36CD
:1001D0000D360C360D360C36D8A0AEEC00F0D8B08B
:1001E000A9EC00F0042EF6D7062EE7D70E0E046E0B
:1001F000056AFF0E0E6E400E0F6E000000000E2E00
:10020000FCD70F2EFAD702500C6E03500D6E0D3630
:100210000C360D360C360D360C36D8A0AEEC00F090
:10022000D8B0A9EC00F0042EF6D70E0E046E056AC5
:10023000FF0E0E6E400E0F6E000000000E2EFCD75B
:100240000F2EFAD702500C6E03500D6E0D360C3681
:100250000D360C360D360C36D8A0AEEC00F0D8B00A
:0E026000A9EC00F0042EF6D799D735EF01F087
:020000040030CA
:03000100021F1EBD
:020005008381F5
:060008000FC00FE00F40E5
:0200000400F00A
:1000000054657374204461746100010203040500A7
:00000001FF
