:020000040000FA
:04000000ADEF00F070
:0800080000D012EC00F0F292AE
:10001000F090F092F290110000D0D59ECA94F29424
:1000200003801100F2B01FEC00F0F2B228EC00F0F7
:10003000F0B02FEC00F0F0B236EC00F012000570DA
:1000400081A83DEC00F081AA42EC00F0F290120091
:100050000580350E006E360E016EF292120005809C
:10006000350E006E340E016EF29012000580350ED2
:10007000006E300E016EF2921200350E006E0C0E04
:10008000016E1200350E006E320E016E1200826A91
:100090008B6AFD0E946E1200816A8A6AC290FF0E0E
:1000A000C16EFF0E936E3B0E816EF292F090F09255
:1000B000F290F19EF288F086F088F286F19CF19A37
:1000C000F198F28EF28CF28ED08EF08CF08EF18060
:1000D0001200806A896A070EC16E070EB46EFF0EA9
:1000E000926E836A8C6AFF0E956E12000F01460EA7
:1000F000CB6E150EBB6E0C0EBA6E9E92CA92CA9053
:10010000080ED56EF70ED76E520ED66EF294F28AA6
:10011000F194F28E1200F70ED76E700ED66ED58E59
:100120009FEC00F01200F70ED76E700ED66E000E28
:10013000CC6E8B82D58ECA849FEC00F0120003A097
:10014000FED7039012008BEC00F093EC00F012004D
:1001500093EC00F08BEC00F0120047EC00F04CEC5C
:1001600000F069EC00F076EC00F0066A000E056E17
:10017000D39E0300000000000000030E046E05A0E3
:10018000F5D7067006B0008606A000960E0E026E29
:10019000036A0050076E0150086E083607360836AD
:1001A000073608360736D8A0A8EC00F0D8B0A3EC84
:1001B00000F0022EF6D7FF0E096E400E0A6E000008
:1001C0000000092EFCD70A2EFAD7042EDFD7D0D78D
:0401D000E8EF00F064
:020000040030CA
:03000100021F1EBD
:020005008381F5
:060008000FC00FE00F40E5
:0200000400F00A
:1000000054657374204461746100010203040500A7
:00000001FF
