:020000040000FA
:04000000BCEF00F061
:0200080008D01E
:080018003ED0FF0E036E0270E2
:10002000F2B01DEC00F0F2B225EC00F0F2B02DECD5
:1000300000F0F2B235EC00F0110081A83DEC00F0C8
:1000400081AA44EC00F0F2901200350E006E02B06E
:100050000086360E016EF2921200350E006E02B06E
:100060000086340E016EF2901200350E006E02B062
:100070000086300E016EF2921200350E006E02B054
:100080000086350E016E1200350E006E02B000863D
:10009000320E016E1200D59ECA94F29412801000A6
:1000A000C290FF0E936EFF0EC16E3B0E816E0F016C
:1000B000F292F090F092F290F19EF288F086F08841
:1000C000F286F19CF19AF198F28EF28CD08EF08E3D
:1000D000F08CF180F80EF26E1200826A8B6A946ADC
:1000E00012000F01440ECB6E050EBB6E2C0EBA6EC5
:1000F000000ECA6E800ECD6EF294F28AF194F28EEA
:100100001200806AFF0E926E836AFF0E956E1200D7
:10011000FF0ECF6E7F0ECE6ECD808B829FEC00F0F7
:100120008B9212000F01FF0ECF6E7F0ECE6E000E6F
:10013000CC6E8B82CD80CA849FEC00F0120012A09E
:10014000FED71290120088EC00F0120088EC00F04C
:10015000120001360036013600360E0E106EB2EC7B
:1001600000F0120001360036D8A0A3EC00F0A6EC97
:1001700000F0102EF7D7120050EC00F06DEC00F0FC
:1001800071EC00F081EC00F0FF0E116E000E026EBB
:10019000D39E03000000000E036E03A0FED7A9EC5F
:0A01A00000F0112EF6D7D3EF00F0A7
:020000040030CA
:03000100021F1FBC
:020005008385F1
:060008000FC00FE00F40E5
:0200000400F00A
:1000000054657374204461746100010203040500A7
:00000001FF
