:020000040000FA
:0400000042EF00F0DB
:0800080000D0D59ECA94F294C9
:1000100010801100826A8B6A946A12000F01080E28
:10002000CB6E030EBB6E3C0EBA6E000ECA6E080E8F
:10003000D56EF294F28AF184F28E000E106E1200E8
:10004000FF0ED76EF00ED66ED58E34EC00F0120097
:10005000FF0ED76EE00ED66E000ECC6E8B82D58E64
:10006000CA8434EC00F0120010A0FED710901200E9
:1000700020EC00F028EC00F0120028EC00F020EC5E
:1000800000F01200B50E006E350E016E0F0E026EFE
:100090000AEC00F00EEC00F001360036D8A038EC87
:1000A00000F03DEC00F0022EF7D755EF00F057EFCF
:0200B00000F05E
:020000040030CA
:03000100021F1FBC
:020005008385F1
:060008000FC00FE00F40E5
:0200000400F00A
:1000000054657374204461746100010203040500A7
:00000001FF
