:020000040000FA
:0400000038EF00F0E5
:0800080000D0F290F292F0909A
:10001000F09200708B72110000D01100816A8A6A20
:10002000C290FF0EC16EFF0E936E3B0E816EF29278
:10003000F090F092F290F19EF288F086F088F286CD
:10004000F19CF19AF198F28EF28CF28ED08EF08EB5
:10005000F08CF1801200806A896A070EC16E076E0B
:10006000B46EFF0E926E836A8C6AFF0E956E12005C
:10007000826A8B6AFD0E946E0EEC00F02BEC00F0A1
:10008000F40ED76ED66ECF6ECE6ECC6E000E006EB6
:10009000D38E03000000D39E030000000000000088
:0200A000FAD78D
:020000040030CA
:03000100021F1EBD
:020005008381F5
:060008000FC00FE00F40E5
:0200000400F00A
:1000000054657374204461746100010203040500A7
:00000001FF
